{"bytecode":"608060405234801561001057600080fd5b5060408051808201909152600b81526a43616e646964617465203160a81b602082015261003c9061006c565b60408051808201909152600b81526a21b0b73234b230ba32901960a91b60208201526100679061006c565b61025a565b60008054908061007b836100d5565b9091555050604080516060810182526000805480835260208084018681528486018490529183526001908190529390912082518155905191929091908201906100c4908261019b565b506040820151816002015590505050565b6000600182016100f557634e487b7160e01b600052601160045260246000fd5b5060010190565b634e487b7160e01b600052604160045260246000fd5b600181811c9082168061012657607f821691505b60208210810361014657634e487b7160e01b600052602260045260246000fd5b50919050565b601f82111561019657600081815260208120601f850160051c810160208610156101735750805b601f850160051c820191505b818110156101925782815560010161017f565b5050505b505050565b81516001600160401b038111156101b4576101b46100fc565b6101c8816101c28454610112565b8461014c565b602080601f8311600181146101fd57600084156101e55750858301515b600019600386901b1c1916600185901b178555610192565b600085815260208120601f198616915b8281101561022c5788860151825594840194600190910190840161020d565b508582101561024a5787850151600019600388901b60f8161c191681555b5050505050600190811b01905550565b61036a806102696000396000f3fe608060405234801561001057600080fd5b506004361061004c5760003560e01c80630121b93f146100515780633477ee2e14610066578063a3ec138d14610091578063a9a981a3146100c4575b600080fd5b61006461005f366004610225565b6100db565b005b610079610074366004610225565b61017b565b6040516100889392919061023e565b60405180910390f35b6100b461009f3660046102a3565b60026020526000908152604090205460ff1681565b6040519015158152602001610088565b6100cd60005481565b604051908152602001610088565b3360009081526002602052604090205460ff16156100f857600080fd5b60008111801561010a57506000548111155b61011357600080fd5b336000908152600260208181526040808420805460ff19166001908117909155858552909152822001805491610148836102d3565b909155505060405181907ffff3c900d938d21d0990d786e819f29b8d05c1ef587b462b939609625b684b1690600090a250565b60016020819052600091825260409091208054918101805461019c906102fa565b80601f01602080910402602001604051908101604052809291908181526020018280546101c8906102fa565b80156102155780601f106101ea57610100808354040283529160200191610215565b820191906000526020600020905b8154815290600101906020018083116101f857829003601f168201915b5050505050908060020154905083565b60006020828403121561023757600080fd5b5035919050565b83815260006020606081840152845180606085015260005b8181101561027257868101830151858201608001528201610256565b81811115610284576000608083870101525b5060408401949094525050601f91909101601f19160160800192915050565b6000602082840312156102b557600080fd5b81356001600160a01b03811681146102cc57600080fd5b9392505050565b6000600182016102f357634e487b7160e01b600052601160045260246000fd5b5060010190565b600181811c9082168061030e57607f821691505b60208210810361032e57634e487b7160e01b600052602260045260246000fd5b5091905056fea264697066735822122014682c65046b68ffa97140566249dca5b48eede0362ad904c797c96b9fbfb68364736f6c634300080f0033","bytecodeSha1":"3ad2be6bd37743eba7ed3dc86f9db6a6fe017614","type":"contract","abi":[{"inputs":[],"stateMutability":"nonpayable","type":"constructor","name":"constructor"},{"anonymous":false,"inputs":[{"indexed":true,"internalType":"uint256","name":"candidateId","type":"uint256"}],"name":"votedEvent","type":"event"},{"inputs":[],"name":"candidateCount","outputs":[{"internalType":"uint256","name":"","type":"uint256"}],"stateMutability":"view","type":"function"},{"inputs":[{"internalType":"uint256","name":"","type":"uint256"}],"name":"candidates","outputs":[{"internalType":"uint256","name":"id","type":"uint256"},{"internalType":"string","name":"name","type":"string"},{"internalType":"uint256","name":"voteCount","type":"uint256"}],"stateMutability":"view","type":"function"},{"inputs":[{"internalType":"uint256","name":"_candidateId","type":"uint256"}],"name":"vote","outputs":[],"stateMutability":"nonpayable","type":"function"},{"inputs":[{"internalType":"address","name":"","type":"address"}],"name":"voters","outputs":[{"internalType":"bool","name":"","type":"bool"}],"stateMutability":"view","type":"function"}],"compiler":{"version":"0.8.15+commit.e14f2714","evm_version":"istanbul","optimizer":{"enabled":true,"runs":200}},"contractName":"Election","language":"Solidity","natspec":{"methods":{},"kind":"dev","version":1},"opcodes":"PUSH1 0x80 PUSH1 0x40 MSTORE CALLVALUE DUP1 ISZERO PUSH2 0x10 JUMPI PUSH1 0x0 DUP1 REVERT JUMPDEST POP PUSH1 0x4 CALLDATASIZE LT PUSH2 0x4C JUMPI PUSH1 0x0 CALLDATALOAD PUSH1 0xE0 SHR DUP1 PUSH4 0x121B93F EQ PUSH2 0x51 JUMPI DUP1 PUSH4 0x3477EE2E EQ PUSH2 0x66 JUMPI DUP1 PUSH4 0xA3EC138D EQ PUSH2 0x91 JUMPI DUP1 PUSH4 0xA9A981A3 EQ PUSH2 0xC4 JUMPI JUMPDEST PUSH1 0x0 DUP1 REVERT JUMPDEST PUSH2 0x64 PUSH2 0x5F CALLDATASIZE PUSH1 0x4 PUSH2 0x225 JUMP JUMPDEST PUSH2 0xDB JUMP JUMPDEST STOP JUMPDEST PUSH2 0x79 PUSH2 0x74 CALLDATASIZE PUSH1 0x4 PUSH2 0x225 JUMP JUMPDEST PUSH2 0x17B JUMP JUMPDEST PUSH1 0x40 MLOAD PUSH2 0x88 SWAP4 SWAP3 SWAP2 SWAP1 PUSH2 0x23E JUMP JUMPDEST PUSH1 0x40 MLOAD DUP1 SWAP2 SUB SWAP1 RETURN JUMPDEST PUSH2 0xB4 PUSH2 0x9F CALLDATASIZE PUSH1 0x4 PUSH2 0x2A3 JUMP JUMPDEST PUSH1 0x2 PUSH1 0x20 MSTORE PUSH1 0x0 SWAP1 DUP2 MSTORE PUSH1 0x40 SWAP1 KECCAK256 SLOAD PUSH1 0xFF AND DUP2 JUMP JUMPDEST PUSH1 0x40 MLOAD SWAP1 ISZERO ISZERO DUP2 MSTORE PUSH1 0x20 ADD PUSH2 0x88 JUMP JUMPDEST PUSH2 0xCD PUSH1 0x0 SLOAD DUP2 JUMP JUMPDEST PUSH1 0x40 MLOAD SWAP1 DUP2 MSTORE PUSH1 0x20 ADD PUSH2 0x88 JUMP JUMPDEST CALLER PUSH1 0x0 SWAP1 DUP2 MSTORE PUSH1 0x2 PUSH1 0x20 MSTORE PUSH1 0x40 SWAP1 KECCAK256 SLOAD PUSH1 0xFF AND ISZERO PUSH2 0xF8 JUMPI PUSH1 0x0 DUP1 REVERT JUMPDEST PUSH1 0x0 DUP2 GT DUP1 ISZERO PUSH2 0x10A JUMPI POP PUSH1 0x0 SLOAD DUP2 GT ISZERO JUMPDEST PUSH2 0x113 JUMPI PUSH1 0x0 DUP1 REVERT JUMPDEST CALLER PUSH1 0x0 SWAP1 DUP2 MSTORE PUSH1 0x2 PUSH1 0x20 DUP2 DUP2 MSTORE PUSH1 0x40 DUP1 DUP5 KECCAK256 DUP1 SLOAD PUSH1 0xFF NOT AND PUSH1 0x1 SWAP1 DUP2 OR SWAP1 SWAP2 SSTORE DUP6 DUP6 MSTORE SWAP1 SWAP2 MSTORE DUP3 KECCAK256 ADD DUP1 SLOAD SWAP2 PUSH2 0x148 DUP4 PUSH2 0x2D3 JUMP JUMPDEST SWAP1 SWAP2 SSTORE POP POP PUSH1 0x40 MLOAD DUP2 SWAP1 PUSH32 0xFFF3C900D938D21D0990D786E819F29B8D05C1EF587B462B939609625B684B16 SWAP1 PUSH1 0x0 SWAP1 LOG2 POP JUMP JUMPDEST PUSH1 0x1 PUSH1 0x20 DUP2 SWAP1 MSTORE PUSH1 0x0 SWAP2 DUP3 MSTORE PUSH1 0x40 SWAP1 SWAP2 KECCAK256 DUP1 SLOAD SWAP2 DUP2 ADD DUP1 SLOAD PUSH2 0x19C SWAP1 PUSH2 0x2FA JUMP JUMPDEST DUP1 PUSH1 0x1F ADD PUSH1 0x20 DUP1 SWAP2 DIV MUL PUSH1 0x20 ADD PUSH1 0x40 MLOAD SWAP1 DUP2 ADD PUSH1 0x40 MSTORE DUP1 SWAP3 SWAP2 SWAP1 DUP2 DUP2 MSTORE PUSH1 0x20 ADD DUP3 DUP1 SLOAD PUSH2 0x1C8 SWAP1 PUSH2 0x2FA JUMP JUMPDEST DUP1 ISZERO PUSH2 0x215 JUMPI DUP1 PUSH1 0x1F LT PUSH2 0x1EA JUMPI PUSH2 0x100 DUP1 DUP4 SLOAD DIV MUL DUP4 MSTORE SWAP2 PUSH1 0x20 ADD SWAP2 PUSH2 0x215 JUMP JUMPDEST DUP3 ADD SWAP2 SWAP1 PUSH1 0x0 MSTORE PUSH1 0x20 PUSH1 0x0 KECCAK256 SWAP1 JUMPDEST DUP2 SLOAD DUP2 MSTORE SWAP1 PUSH1 0x1 ADD SWAP1 PUSH1 0x20 ADD DUP1 DUP4 GT PUSH2 0x1F8 JUMPI DUP3 SWAP1 SUB PUSH1 0x1F AND DUP3 ADD SWAP2 JUMPDEST POP POP POP POP POP SWAP1 DUP1 PUSH1 0x2 ADD SLOAD SWAP1 POP DUP4 JUMP JUMPDEST PUSH1 0x0 PUSH1 0x20 DUP3 DUP5 SUB SLT ISZERO PUSH2 0x237 JUMPI PUSH1 0x0 DUP1 REVERT JUMPDEST POP CALLDATALOAD SWAP2 SWAP1 POP JUMP JUMPDEST DUP4 DUP2 MSTORE PUSH1 0x0 PUSH1 0x20 PUSH1 0x60 DUP2 DUP5 ADD MSTORE DUP5 MLOAD DUP1 PUSH1 0x60 DUP6 ADD MSTORE PUSH1 0x0 JUMPDEST DUP2 DUP2 LT ISZERO PUSH2 0x272 JUMPI DUP7 DUP2 ADD DUP4 ADD MLOAD DUP6 DUP3 ADD PUSH1 0x80 ADD MSTORE DUP3 ADD PUSH2 0x256 JUMP JUMPDEST DUP2 DUP2 GT ISZERO PUSH2 0x284 JUMPI PUSH1 0x0 PUSH1 0x80 DUP4 DUP8 ADD ADD MSTORE JUMPDEST POP PUSH1 0x40 DUP5 ADD SWAP5 SWAP1 SWAP5 MSTORE POP POP PUSH1 0x1F SWAP2 SWAP1 SWAP2 ADD PUSH1 0x1F NOT AND ADD PUSH1 0x80 ADD SWAP3 SWAP2 POP POP JUMP JUMPDEST PUSH1 0x0 PUSH1 0x20 DUP3 DUP5 SUB SLT ISZERO PUSH2 0x2B5 JUMPI PUSH1 0x0 DUP1 REVERT JUMPDEST DUP2 CALLDATALOAD PUSH1 0x1 PUSH1 0x1 PUSH1 0xA0 SHL SUB DUP2 AND DUP2 EQ PUSH2 0x2CC JUMPI PUSH1 0x0 DUP1 REVERT JUMPDEST SWAP4 SWAP3 POP POP POP JUMP JUMPDEST PUSH1 0x0 PUSH1 0x1 DUP3 ADD PUSH2 0x2F3 JUMPI PUSH4 0x4E487B71 PUSH1 0xE0 SHL PUSH1 0x0 MSTORE PUSH1 0x11 PUSH1 0x4 MSTORE PUSH1 0x24 PUSH1 0x0 REVERT JUMPDEST POP PUSH1 0x1 ADD SWAP1 JUMP JUMPDEST PUSH1 0x1 DUP2 DUP2 SHR SWAP1 DUP3 AND DUP1 PUSH2 0x30E JUMPI PUSH1 0x7F DUP3 AND SWAP2 POP JUMPDEST PUSH1 0x20 DUP3 LT DUP2 SUB PUSH2 0x32E JUMPI PUSH4 0x4E487B71 PUSH1 0xE0 SHL PUSH1 0x0 MSTORE PUSH1 0x22 PUSH1 0x4 MSTORE PUSH1 0x24 PUSH1 0x0 REVERT JUMPDEST POP SWAP2 SWAP1 POP JUMP INVALID LOG2 PUSH5 0x6970667358 0x22 SLT KECCAK256 EQ PUSH9 0x2C65046B68FFA97140 JUMP PUSH3 0x49DCA5 0xB4 DUP15 0xED 0xE0 CALLDATASIZE 0x2A 0xD9 DIV 0xC7 SWAP8 0xC9 PUSH12 0x9FBFB68364736F6C63430008 0xF STOP CALLER ","sha1":"d80eb54d869cc4f9eafc44402dad4921a18173c1","source":"// SPDX-License-Identifier: MIT\npragma solidity ^0.8.0;\n\ncontract Election {\n\n    struct Candidate {\n        uint id;\n        string name;\n        uint voteCount;\n    }\n\n    uint public candidateCount;\n\n    mapping(uint => Candidate) public candidates;\n\n    mapping(address => bool) public voters;\n\n    event votedEvent (uint indexed candidateId);\n\n    constructor() {\n        addCandidate(\"Candidate 1\");\n        addCandidate(\"Candidate 2\");\n    }\n\n    function addCandidate(string memory _name) private {\n        candidateCount++;\n        candidates[candidateCount] = Candidate(candidateCount, _name, 0);\n    }\n\n    function vote(uint _candidateId) public {\n        // ensure voter hasn't already voted before\n        require(!voters[msg.sender]);\n\n        // ensure candidate id is valid\n        require(_candidateId > 0 && _candidateId <= candidateCount);\n\n        voters[msg.sender] = true;\n\n        candidates[_candidateId].voteCount++;\n\n        emit votedEvent(_candidateId);\n    }\n\n}\n","sourcePath":"contracts/Election.sol","deployment":{"address":"0x4D4D10410E99C5632f542a2BC2751523D61015f1","chainid":"4","blockHeight":11130614}}